{
  "_format": "hh-sol-artifact-1",
  "contractName": "CertificateVerifier",
  "sourceName": "contract/Certificate.sol",
  "abi": [
    {
      "anonymous": false,
      "inputs": [
        {
          "indexed": true,
          "internalType": "bytes32",
          "name": "certificateHash",
          "type": "bytes32"
        },
        {
          "indexed": false,
          "internalType": "string",
          "name": "studentName",
          "type": "string"
        },
        {
          "indexed": false,
          "internalType": "string",
          "name": "schoolName",
          "type": "string"
        },
        {
          "indexed": false,
          "internalType": "string",
          "name": "schoolMajor",
          "type": "string"
        },
        {
          "indexed": false,
          "internalType": "string",
          "name": "schoolDepartment",
          "type": "string"
        }
      ],
      "name": "CertificateAdded",
      "type": "event"
    },
    {
      "anonymous": false,
      "inputs": [
        {
          "indexed": false,
          "internalType": "bytes32",
          "name": "certificateHash",
          "type": "bytes32"
        }
      ],
      "name": "CertificateVerified",
      "type": "event"
    },
    {
      "inputs": [
        {
          "internalType": "string",
          "name": "_studentName",
          "type": "string"
        },
        {
          "internalType": "string",
          "name": "_schoolName",
          "type": "string"
        },
        {
          "internalType": "string",
          "name": "_schoolMajor",
          "type": "string"
        },
        {
          "internalType": "string",
          "name": "_schoolDepartment",
          "type": "string"
        },
        {
          "internalType": "bytes32",
          "name": "_certificateHash",
          "type": "bytes32"
        }
      ],
      "name": "addCertificate",
      "outputs": [],
      "stateMutability": "nonpayable",
      "type": "function"
    },
    {
      "inputs": [
        {
          "internalType": "bytes32",
          "name": "_certificateHash",
          "type": "bytes32"
        }
      ],
      "name": "getCertificateInfo",
      "outputs": [
        {
          "internalType": "bytes32",
          "name": "",
          "type": "bytes32"
        },
        {
          "internalType": "string",
          "name": "",
          "type": "string"
        },
        {
          "internalType": "string",
          "name": "",
          "type": "string"
        },
        {
          "internalType": "string",
          "name": "",
          "type": "string"
        },
        {
          "internalType": "string",
          "name": "",
          "type": "string"
        },
        {
          "internalType": "bool",
          "name": "",
          "type": "bool"
        }
      ],
      "stateMutability": "view",
      "type": "function"
    },
    {
      "inputs": [
        {
          "internalType": "bytes32",
          "name": "_certificateHash",
          "type": "bytes32"
        }
      ],
      "name": "verifyCertificate",
      "outputs": [],
      "stateMutability": "nonpayable",
      "type": "function"
    }
  ],
  "bytecode": "0x608060405234801561001057600080fd5b50610d66806100206000396000f3fe608060405234801561001057600080fd5b50600436106100415760003560e01c806337f7e1dd14610046578063850c17681461007b5780639aa906d114610097575b600080fd5b610060600480360381019061005b91906105b6565b6100b3565b6040516100729695949392919061069d565b60405180910390f35b610095600480360381019061009091906105b6565b61038f565b005b6100b160048036038101906100ac919061084f565b610460565b005b60006060806060806000806000888152602001908152602001600020600001546000808981526020019081526020016000206001016000808a81526020019081526020016000206002016000808b81526020019081526020016000206003016000808c81526020019081526020016000206004016000808d815260200190815260200160002060050160009054906101000a900460ff1684805461015690610969565b80601f016020809104026020016040519081016040528092919081815260200182805461018290610969565b80156101cf5780601f106101a4576101008083540402835291602001916101cf565b820191906000526020600020905b8154815290600101906020018083116101b257829003601f168201915b505050505094508380546101e290610969565b80601f016020809104026020016040519081016040528092919081815260200182805461020e90610969565b801561025b5780601f106102305761010080835404028352916020019161025b565b820191906000526020600020905b81548152906001019060200180831161023e57829003601f168201915b5050505050935082805461026e90610969565b80601f016020809104026020016040519081016040528092919081815260200182805461029a90610969565b80156102e75780601f106102bc576101008083540402835291602001916102e7565b820191906000526020600020905b8154815290600101906020018083116102ca57829003601f168201915b505050505092508180546102fa90610969565b80601f016020809104026020016040519081016040528092919081815260200182805461032690610969565b80156103735780601f1061034857610100808354040283529160200191610373565b820191906000526020600020905b81548152906001019060200180831161035657829003601f168201915b5050505050915095509550955095509550955091939550919395565b6000151560008083815260200190815260200160002060050160009054906101000a900460ff161515146103f8576040517f08c379a00000000000000000000000000000000000000000000000000000000081526004016103ef90610a0c565b60405180910390fd5b600160008083815260200190815260200160002060050160006101000a81548160ff0219169083151502179055507f44db3ef8756adb2af6431f350ace7f2f5288c05ca47aac5fd86be5ccb933b886816040516104559190610a2c565b60405180910390a150565b6040518060c00160405280828152602001868152602001858152602001848152602001838152602001600015158152506000808381526020019081526020016000206000820151816000015560208201518160010190816104c19190610bfd565b5060408201518160020190816104d79190610bfd565b5060608201518160030190816104ed9190610bfd565b5060808201518160040190816105039190610bfd565b5060a08201518160050160006101000a81548160ff021916908315150217905550905050807f1a8a93eefa115368d0381575faa29326b6f90ec5c642745287f93530e213c6538686868660405161055d9493929190610ccf565b60405180910390a25050505050565b6000604051905090565b600080fd5b600080fd5b6000819050919050565b61059381610580565b811461059e57600080fd5b50565b6000813590506105b08161058a565b92915050565b6000602082840312156105cc576105cb610576565b5b60006105da848285016105a1565b91505092915050565b6105ec81610580565b82525050565b600081519050919050565b600082825260208201905092915050565b60005b8381101561062c578082015181840152602081019050610611565b60008484015250505050565b6000601f19601f8301169050919050565b6000610654826105f2565b61065e81856105fd565b935061066e81856020860161060e565b61067781610638565b840191505092915050565b60008115159050919050565b61069781610682565b82525050565b600060c0820190506106b260008301896105e3565b81810360208301526106c48188610649565b905081810360408301526106d88187610649565b905081810360608301526106ec8186610649565b905081810360808301526107008185610649565b905061070f60a083018461068e565b979650505050505050565b600080fd5b600080fd5b7f4e487b7100000000000000000000000000000000000000000000000000000000600052604160045260246000fd5b61075c82610638565b810181811067ffffffffffffffff8211171561077b5761077a610724565b5b80604052505050565b600061078e61056c565b905061079a8282610753565b919050565b600067ffffffffffffffff8211156107ba576107b9610724565b5b6107c382610638565b9050602081019050919050565b82818337600083830152505050565b60006107f26107ed8461079f565b610784565b90508281526020810184848401111561080e5761080d61071f565b5b6108198482856107d0565b509392505050565b600082601f8301126108365761083561071a565b5b81356108468482602086016107df565b91505092915050565b600080600080600060a0868803121561086b5761086a610576565b5b600086013567ffffffffffffffff8111156108895761088861057b565b5b61089588828901610821565b955050602086013567ffffffffffffffff8111156108b6576108b561057b565b5b6108c288828901610821565b945050604086013567ffffffffffffffff8111156108e3576108e261057b565b5b6108ef88828901610821565b935050606086013567ffffffffffffffff8111156109105761090f61057b565b5b61091c88828901610821565b925050608061092d888289016105a1565b9150509295509295909350565b7f4e487b7100000000000000000000000000000000000000000000000000000000600052602260045260246000fd5b6000600282049050600182168061098157607f821691505b6020821081036109945761099361093a565b5b50919050565b7f43657274696669636174652068617320616c7265616479206265656e2076657260008201527f6966696564000000000000000000000000000000000000000000000000000000602082015250565b60006109f66025836105fd565b9150610a018261099a565b604082019050919050565b60006020820190508181036000830152610a25816109e9565b9050919050565b6000602082019050610a4160008301846105e3565b92915050565b60008190508160005260206000209050919050565b60006020601f8301049050919050565b600082821b905092915050565b600060088302610aa97fffffffffffffffffffffffffffffffffffffffffffffffffffffffffffffffff82610a6c565b610ab38683610a6c565b95508019841693508086168417925050509392505050565b6000819050919050565b6000819050919050565b6000610afa610af5610af084610acb565b610ad5565b610acb565b9050919050565b6000819050919050565b610b1483610adf565b610b28610b2082610b01565b848454610a79565b825550505050565b600090565b610b3d610b30565b610b48818484610b0b565b505050565b5b81811015610b6c57610b61600082610b35565b600181019050610b4e565b5050565b601f821115610bb157610b8281610a47565b610b8b84610a5c565b81016020851015610b9a578190505b610bae610ba685610a5c565b830182610b4d565b50505b505050565b600082821c905092915050565b6000610bd460001984600802610bb6565b1980831691505092915050565b6000610bed8383610bc3565b9150826002028217905092915050565b610c06826105f2565b67ffffffffffffffff811115610c1f57610c1e610724565b5b610c298254610969565b610c34828285610b70565b600060209050601f831160018114610c675760008415610c55578287015190505b610c5f8582610be1565b865550610cc7565b601f198416610c7586610a47565b60005b82811015610c9d57848901518255600182019150602085019450602081019050610c78565b86831015610cba5784890151610cb6601f891682610bc3565b8355505b6001600288020188555050505b505050505050565b60006080820190508181036000830152610ce98187610649565b90508181036020830152610cfd8186610649565b90508181036040830152610d118185610649565b90508181036060830152610d258184610649565b90509594505050505056fea2646970667358221220a6834047dce51bc57530f22bf2c96eee6e1c288d68a79ec486dfffb14d45013264736f6c63430008110033",
  "linkReferences": {},
  "deployedLinkReferences": {}
}